{
  "_format": "hh-sol-artifact-1",
  "contractName": "nUSD",
  "sourceName": "contracts/Lock.sol",
  "abi": [
    {
      "inputs": [],
      "stateMutability": "nonpayable",
      "type": "constructor"
    },
    {
      "anonymous": false,
      "inputs": [
        {
          "indexed": true,
          "internalType": "address",
          "name": "user",
          "type": "address"
        },
        {
          "indexed": false,
          "internalType": "uint256",
          "name": "ethAmount",
          "type": "uint256"
        },
        {
          "indexed": false,
          "internalType": "uint256",
          "name": "nusdAmount",
          "type": "uint256"
        }
      ],
      "name": "Deposit",
      "type": "event"
    },
    {
      "anonymous": false,
      "inputs": [
        {
          "indexed": true,
          "internalType": "address",
          "name": "user",
          "type": "address"
        },
        {
          "indexed": false,
          "internalType": "uint256",
          "name": "nusdAmount",
          "type": "uint256"
        },
        {
          "indexed": false,
          "internalType": "uint256",
          "name": "ethAmount",
          "type": "uint256"
        }
      ],
      "name": "Redemption",
      "type": "event"
    },
    {
      "inputs": [
        {
          "internalType": "address",
          "name": "",
          "type": "address"
        }
      ],
      "name": "balanceOf",
      "outputs": [
        {
          "internalType": "uint256",
          "name": "",
          "type": "uint256"
        }
      ],
      "stateMutability": "view",
      "type": "function"
    },
    {
      "inputs": [],
      "name": "decimals",
      "outputs": [
        {
          "internalType": "uint8",
          "name": "",
          "type": "uint8"
        }
      ],
      "stateMutability": "view",
      "type": "function"
    },
    {
      "inputs": [],
      "name": "deposit",
      "outputs": [],
      "stateMutability": "payable",
      "type": "function"
    },
    {
      "inputs": [],
      "name": "getETHUSDTPrice",
      "outputs": [
        {
          "internalType": "uint256",
          "name": "",
          "type": "uint256"
        }
      ],
      "stateMutability": "view",
      "type": "function"
    },
    {
      "inputs": [],
      "name": "name",
      "outputs": [
        {
          "internalType": "string",
          "name": "",
          "type": "string"
        }
      ],
      "stateMutability": "view",
      "type": "function"
    },
    {
      "inputs": [
        {
          "internalType": "uint256",
          "name": "nusdAmount",
          "type": "uint256"
        }
      ],
      "name": "redeem",
      "outputs": [],
      "stateMutability": "nonpayable",
      "type": "function"
    },
    {
      "inputs": [],
      "name": "symbol",
      "outputs": [
        {
          "internalType": "string",
          "name": "",
          "type": "string"
        }
      ],
      "stateMutability": "view",
      "type": "function"
    },
    {
      "inputs": [],
      "name": "totalSupply",
      "outputs": [
        {
          "internalType": "uint256",
          "name": "",
          "type": "uint256"
        }
      ],
      "stateMutability": "view",
      "type": "function"
    }
  ],
  "bytecode": "0x60806040526040518060400160405280600f81526020017f6e55534420537461626c65636f696e0000000000000000000000000000000000815250600090816200004a919062000391565b506040518060400160405280600481526020017f6e555344000000000000000000000000000000000000000000000000000000008152506001908162000091919062000391565b506012600260006101000a81548160ff021916908360ff160217905550348015620000bb57600080fd5b5073779877a7b0d9e8603169ddbd7836e478b4624789600560006101000a81548173ffffffffffffffffffffffffffffffffffffffff021916908373ffffffffffffffffffffffffffffffffffffffff16021790555062000478565b600081519050919050565b7f4e487b7100000000000000000000000000000000000000000000000000000000600052604160045260246000fd5b7f4e487b7100000000000000000000000000000000000000000000000000000000600052602260045260246000fd5b600060028204905060018216806200019957607f821691505b602082108103620001af57620001ae62000151565b5b50919050565b60008190508160005260206000209050919050565b60006020601f8301049050919050565b600082821b905092915050565b600060088302620002197fffffffffffffffffffffffffffffffffffffffffffffffffffffffffffffffff82620001da565b620002258683620001da565b95508019841693508086168417925050509392505050565b6000819050919050565b6000819050919050565b6000620002726200026c62000266846200023d565b62000247565b6200023d565b9050919050565b6000819050919050565b6200028e8362000251565b620002a66200029d8262000279565b848454620001e7565b825550505050565b600090565b620002bd620002ae565b620002ca81848462000283565b505050565b5b81811015620002f257620002e6600082620002b3565b600181019050620002d0565b5050565b601f82111562000341576200030b81620001b5565b6200031684620001ca565b8101602085101562000326578190505b6200033e6200033585620001ca565b830182620002cf565b50505b505050565b600082821c905092915050565b6000620003666000198460080262000346565b1980831691505092915050565b600062000381838362000353565b9150826002028217905092915050565b6200039c8262000117565b67ffffffffffffffff811115620003b857620003b762000122565b5b620003c4825462000180565b620003d1828285620002f6565b600060209050601f831160018114620004095760008415620003f4578287015190505b62000400858262000373565b86555062000470565b601f1984166200041986620001b5565b60005b8281101562000443578489015182556001820191506020850194506020810190506200041c565b868310156200046357848901516200045f601f89168262000353565b8355505b6001600288020188555050505b505050505050565b610e9780620004886000396000f3fe60806040526004361061007b5760003560e01c8063865d91691161004e578063865d91691461013e57806395d89b4114610169578063d0e30db014610194578063db006a751461019e5761007b565b806306fdde031461008057806318160ddd146100ab578063313ce567146100d657806370a0823114610101575b600080fd5b34801561008c57600080fd5b506100956101c7565b6040516100a291906107df565b60405180910390f35b3480156100b757600080fd5b506100c0610255565b6040516100cd919061081a565b60405180910390f35b3480156100e257600080fd5b506100eb61025b565b6040516100f89190610851565b60405180910390f35b34801561010d57600080fd5b50610128600480360381019061012391906108cf565b61026e565b604051610135919061081a565b60405180910390f35b34801561014a57600080fd5b50610153610286565b604051610160919061081a565b60405180910390f35b34801561017557600080fd5b5061017e610327565b60405161018b91906107df565b60405180910390f35b61019c6103b5565b005b3480156101aa57600080fd5b506101c560048036038101906101c09190610928565b6104ea565b005b600080546101d490610984565b80601f016020809104026020016040519081016040528092919081815260200182805461020090610984565b801561024d5780601f106102225761010080835404028352916020019161024d565b820191906000526020600020905b81548152906001019060200180831161023057829003601f168201915b505050505081565b60035481565b600260009054906101000a900460ff1681565b60046020528060005260406000206000915090505481565b600080600560009054906101000a900473ffffffffffffffffffffffffffffffffffffffff1673ffffffffffffffffffffffffffffffffffffffff1663feaf968c6040518163ffffffff1660e01b815260040160a060405180830381865afa1580156102f6573d6000803e3d6000fd5b505050506040513d601f19601f8201168201806040525081019061031a9190610a42565b5050509150508091505090565b6001805461033490610984565b80601f016020809104026020016040519081016040528092919081815260200182805461036090610984565b80156103ad5780601f10610382576101008083540402835291602001916103ad565b820191906000526020600020905b81548152906001019060200180831161039057829003601f168201915b505050505081565b600034116103f8576040517f08c379a00000000000000000000000000000000000000000000000000000000081526004016103ef90610b2f565b60405180910390fd5b6000610402610286565b90506000671bc16d674ec80000823461041b9190610b7e565b6104259190610bef565b905080600360008282546104399190610c20565b9250508190555080600460003373ffffffffffffffffffffffffffffffffffffffff1673ffffffffffffffffffffffffffffffffffffffff168152602001908152602001600020600082825461048f9190610c20565b925050819055503373ffffffffffffffffffffffffffffffffffffffff167f90890809c654f11d6e72a28fa60149770a0d11ec6c92319d6ceb2bb0a4ea1a1534836040516104de929190610c54565b60405180910390a25050565b6000811161052d576040517f08c379a000000000000000000000000000000000000000000000000000000000815260040161052490610cef565b60405180910390fd5b80600460003373ffffffffffffffffffffffffffffffffffffffff1673ffffffffffffffffffffffffffffffffffffffff1681526020019081526020016000205410156105af576040517f08c379a00000000000000000000000000000000000000000000000000000000081526004016105a690610d5b565b60405180910390fd5b60006105b9610286565b9050600081671bc16d674ec80000846105d29190610b7e565b6105dc9190610bef565b905082600360008282546105f09190610d7b565b9250508190555082600460003373ffffffffffffffffffffffffffffffffffffffff1673ffffffffffffffffffffffffffffffffffffffff16815260200190815260200160002060008282546106469190610d7b565b9250508190555060003373ffffffffffffffffffffffffffffffffffffffff168260405161067390610de0565b60006040518083038185875af1925050503d80600081146106b0576040519150601f19603f3d011682016040523d82523d6000602084013e6106b5565b606091505b50509050806106f9576040517f08c379a00000000000000000000000000000000000000000000000000000000081526004016106f090610e41565b60405180910390fd5b3373ffffffffffffffffffffffffffffffffffffffff167feebddeddf4ae1ee54a48517af27958e7666d69c7ba2e3e7c2b0ff87ef5f4491e8584604051610741929190610c54565b60405180910390a250505050565b600081519050919050565b600082825260208201905092915050565b60005b8381101561078957808201518184015260208101905061076e565b60008484015250505050565b6000601f19601f8301169050919050565b60006107b18261074f565b6107bb818561075a565b93506107cb81856020860161076b565b6107d481610795565b840191505092915050565b600060208201905081810360008301526107f981846107a6565b905092915050565b6000819050919050565b61081481610801565b82525050565b600060208201905061082f600083018461080b565b92915050565b600060ff82169050919050565b61084b81610835565b82525050565b60006020820190506108666000830184610842565b92915050565b600080fd5b600073ffffffffffffffffffffffffffffffffffffffff82169050919050565b600061089c82610871565b9050919050565b6108ac81610891565b81146108b757600080fd5b50565b6000813590506108c9816108a3565b92915050565b6000602082840312156108e5576108e461086c565b5b60006108f3848285016108ba565b91505092915050565b61090581610801565b811461091057600080fd5b50565b600081359050610922816108fc565b92915050565b60006020828403121561093e5761093d61086c565b5b600061094c84828501610913565b91505092915050565b7f4e487b7100000000000000000000000000000000000000000000000000000000600052602260045260246000fd5b6000600282049050600182168061099c57607f821691505b6020821081036109af576109ae610955565b5b50919050565b600069ffffffffffffffffffff82169050919050565b6109d4816109b5565b81146109df57600080fd5b50565b6000815190506109f1816109cb565b92915050565b6000819050919050565b610a0a816109f7565b8114610a1557600080fd5b50565b600081519050610a2781610a01565b92915050565b600081519050610a3c816108fc565b92915050565b600080600080600060a08688031215610a5e57610a5d61086c565b5b6000610a6c888289016109e2565b9550506020610a7d88828901610a18565b9450506040610a8e88828901610a2d565b9350506060610a9f88828901610a2d565b9250506080610ab0888289016109e2565b9150509295509295909350565b7f4465706f73697420616d6f756e74206d7573742062652067726561746572207460008201527f68616e207a65726f2e0000000000000000000000000000000000000000000000602082015250565b6000610b1960298361075a565b9150610b2482610abd565b604082019050919050565b60006020820190508181036000830152610b4881610b0c565b9050919050565b7f4e487b7100000000000000000000000000000000000000000000000000000000600052601160045260246000fd5b6000610b8982610801565b9150610b9483610801565b9250828202610ba281610801565b91508282048414831517610bb957610bb8610b4f565b5b5092915050565b7f4e487b7100000000000000000000000000000000000000000000000000000000600052601260045260246000fd5b6000610bfa82610801565b9150610c0583610801565b925082610c1557610c14610bc0565b5b828204905092915050565b6000610c2b82610801565b9150610c3683610801565b9250828201905080821115610c4e57610c4d610b4f565b5b92915050565b6000604082019050610c69600083018561080b565b610c76602083018461080b565b9392505050565b7f526564656d7074696f6e20616d6f756e74206d7573742062652067726561746560008201527f72207468616e207a65726f2e0000000000000000000000000000000000000000602082015250565b6000610cd9602c8361075a565b9150610ce482610c7d565b604082019050919050565b60006020820190508181036000830152610d0881610ccc565b9050919050565b7f496e73756666696369656e74206e5553442062616c616e63652e000000000000600082015250565b6000610d45601a8361075a565b9150610d5082610d0f565b602082019050919050565b60006020820190508181036000830152610d7481610d38565b9050919050565b6000610d8682610801565b9150610d9183610801565b9250828203905081811115610da957610da8610b4f565b5b92915050565b600081905092915050565b50565b6000610dca600083610daf565b9150610dd582610dba565b600082019050919050565b6000610deb82610dbd565b9150819050919050565b7f455448207472616e73666572206661696c65642e000000000000000000000000600082015250565b6000610e2b60148361075a565b9150610e3682610df5565b602082019050919050565b60006020820190508181036000830152610e5a81610e1e565b905091905056fea264697066735822122074207bdcd48f61b4ba27987918ddf04e64bbcb03ea5137bc817ec0041861a57364736f6c63430008120033",
  "linkReferences": {},
  "deployedLinkReferences": {}
}